:020000040800F2
:1000000098050020D5000008BB150008B9150008A8
:1000100000000000000000000000000000000000E0
:100020000000000000000000000000005916000859
:100030000000000000000000BD1500085B1600086D
:10004000E7000008E7000008E7000008E7000008F4
:10005000BF150008E700000819020008E7000008C3
:1000600000000000E7000008E7000008E7000008C3
:10007000E7000008E7000008E7000008E7000008C4
:10008000E7000008E7000008E7000008E7000008B4
:100090000000000029170008E7000008E70000083A
:1000A000E7000008E7000008E7000008E700000894
:1000B000E7000008E7000008000000000000000062
:1000C0000348854600F096F800480047351C0008B4
:1000D000980500200448804704480047FEE7FEE7F3
:1000E000FEE7FEE7FEE7FEE719170008C10000087B
:1000F000F0B51FB40646002082B0054640240191A9
:1001000000901BE0019922460F46304600F061F84E
:10011000049A059B801A994110D31046194622462D
:1001200000F047F8361A8F4101972246012000213E
:10013000009F00F03EF838184D4100902046641EA4
:100140000028DFDC019B00982946324607B0F0BD4D
:10015000D2B201E00270401C491EFBD2704700225F
:10016000F6E710B513460A4604461946FFF7F0FFB6
:10017000204610BD70B50446002903D0002020227F
:10018000012310E0002801D00020C043C046C04633
:100190000DE02546D5408D4205D30D469540641BA4
:1001A0001D46954040191546521E002DF1DC214692
:1001B00070BD10B5202A04DB0146203A9140002092
:1001C00010BD914020239C1A0346E3401943904000
:1001D00010BD10B5202A04DB0846203AD04000218B
:1001E00010BD0B46D340D0402024A21A91400843B2
:1001F000194610BD064C0125064E05E0E36807CC04
:100200002B430C3C98471034B442F7D3FFF75CFF04
:100210002C2600084C26000880B5042000F014F8B5
:1002200080BD0000B0B5044600F014F90546601C1E
:1002300002D0AA480078041900F00CF9401BA04233
:10024000FAD3B0BD70470000B0B50446074D28682A
:10025000204203D02C60204600F00AF86868204253
:1002600003D06C602046FFF7EDFFB0BD0C180240D4
:1002700070470000F0B58BB007466548874205D04F
:10028000052000900D68002D06D1BEE003200090EF
:100290000D68002D00D1B8E001230020064601932F
:1002A00004460890099006910A9712E03243059E91
:1002B000584842600D682846D840089A121D089296
:1002C00008365B1CA41C099A521C0992002800D114
:1002D0009BE05A1E01980792904005400495E9D092
:1002E00005964E68122E029461D80125B5404B4AFE
:1002F00015425CD00325A540BA68AA430699CF6889
:10030000A74017430A998F60320907998A400A99D2
:100310004F68874317430A9847600A9F0699E84346
:10032000099A5400FA6802408D680394A540154369
:10033000FD6010223243122A12D11C21089A11406A
:100340000F228A40079DED08AD007D192F6A974363
:10035000069A12698A403A430A9F06992A624E68B1
:100360003A680240032530462840039CA0401043D1
:100370003860F000059E029C9CD5182030400F226A
:1003800082403E46079FAF433546224EF7193E6EE8
:10039000964360370522120795420ED0204A9542B7
:1003A00009D0204A9542009D08D1022506E003208D
:1003B000A040C043B6E7012500E000258540354355
:1003C0003D60154805684868C20302D5049E354360
:1003D00001E0049EB5430A9F0F4A156055688203E9
:1003E00001D5354300E0B5430B4A5560094A15680D
:1003F000C20201D5354300E0B543064A1560526894
:10040000800200D552E7B24351E70BB0F0BDC046C1
:10041000000C005000180240801802400600060040
:10042000000400500008005000690840411E884147
:10043000704742690B4693430A401104C918816111
:100440007047002A02D0182281507047282281501C
:1004500070470000054800687047C0461F48007894
:1004600002490A68101808607047C04690010020D1
:10047000B0B50124200208490A6802430A60002539
:10048000284600F00BF8002801D02046B0BD00F04F
:1004900027F82C462046B0BD0020024070B50F4E14
:1004A00031780124002916D005467D20C000FFF7D1
:1004B00061FE01464E480068FFF75CFE00F0ECFD6F
:1004C000032D08D8002806D10024E04329462246FF
:1004D00000F032F87560204670BDC0460000002074
:1004E00010B582B00D484168012211434160416856
:1004F000114001910199110702680A4302600068E6
:100500000840009000980424002120460A4600F08C
:1005100013F8204600F004F802B010BD3C10024071
:10052000002805D41F2108400121814001480160B5
:100530007047C04600E100E0002805D403220346CE
:1005400093430C4A9A1806E00F220240083A03230C
:100550009A43074BD2188007C00E8901C9B2814067
:10056000FF23834010689843084310607047C046DB
:100570001CED00E000E400E0F0B581B00325690265
:100580001A4E3246143A13688B4303431360012416
:1005900061020022884226D1154801683068400572
:1005A00021D50092A702062048431249FFF7E2FD39
:1005B000201A022816D0316839420FD0012811D0F4
:1005C000316839420AD000280CD03168394205D050
:1005D000001D032806D031683942EAD1009A10463E
:1005E00001B0F0BD2A46104601B0F0BD14700040C5
:1005F0000800002040420F000120000270490A68F4
:1006000002430A607047C046F0B587B08178890719
:100610006A4F01D400254FE00590012319073A469F
:10062000183A10680840049006D11068084310601A
:1006300010680840069006980292039101931E02EA
:100640005F4C206830432060FFF704FF05462068B8
:1006500030420AD1FFF7FEFE401B0228F7D90325DE
:1006600005980499002922D026E003252902B868BC
:10067000084011D00599496A88420BD0B8680199A1
:100680000904BA680A43BA60BA688A43BA604D4935
:100690000840B860C0077ED1BA684A480240059851
:1006A000416A1143B96000250499002904D1029BD5
:1006B0001968039A914319600668F1070BD1F10696
:1006C00011D4B10518D471051FD4B10626D4012167
:1006D00072042DD43BE039680322914342680A43F7
:1006E0003A60F106EDD5032189023A688A438168B0
:1006F00011433960B105E6D5032189043A688A437C
:100700004169114339607105DFD5032109053A6854
:100710008A43816911433960B106D8D503210903A1
:100720003A688A43C16811433960012172040ED5C9
:100730003A68254B1A40C46922433A605A1C9442D5
:1007400005D10A043B46483B1C6814431C60B202B6
:100750000DD58A053B689343046A23433B6094426A
:1007600005D10A063B46483B1C6814431C60320511
:100770000ED58C03032292033B6893430269134313
:100780003B60A24204D10804483F39680143396004
:10079000284607B0F0BDFFF75DFE0646864CB868F8
:1007A000800700D578E7FFF755FE801BA042F6D9F9
:1007B00005980499002900D179E77DE7541002409B
:1007C00000700040FFFCFFFFFFFFFF3FF0B583B06C
:1007D0000D46012100281BD0019102907548006848
:1007E00007242040A84216D272490868A043284333
:1007F0000860714EFFF72EFE07466E4800682040E5
:10080000A84208D0FFF726FEC01BB042F5D903214D
:10081000084603B0F0BD029E30688107914B0CD5AD
:10082000410703D521031A680A431A600F21090200
:100830001A688A43B16811431960C0071BD15D482B
:1008400000682040A8422CD95A490868A043284390
:100850000860594FFFF7FEFD0646564800682040E5
:10086000A8421ED0FFF7F6FD801BB842F5D9032140
:10087000084603B0F0BD0298406803285DD88100A7
:1008800001A251588F46C046990800083F09000848
:10089000490900085309000819460839096849053B
:1008A00059E0029A107840076E4B05D5200319686D
:1008B0008143D0680843186018688006400F22D032
:1008C0001A6838210A406848082A23D01A680A4062
:1008D000102A5ED1596803220A40032A00D06348D7
:1008E00059684906490F491CFFF744FC5D494968AE
:1008F0004904490E48435B494968490F491CFFF7C1
:1009000039FC584B06E01846083800688004410F4F
:100910005648C840196889093C220A402749895825
:100920001F220A40D0402E49086025480068FFF782
:10093000B5FD0146084603B0F0BD596D0AE0194601
:1009400008390968890306E01946083909688901E8
:1009500001E0996D8907019900D459E71968A1430D
:1009600001431960144FFFF775FD06463D480068C6
:100970003821014002984068C000814200D15EE702
:10098000FFF768FD801BB842F0D90321084603B089
:10099000F0BD18680840202802D10120C003B9E743
:1009A00018680840182801D00020B3E77D20000215
:1009B000B0E7C04600200240881300007C250008F4
:1009C000040000200648006826490968890A1C229C
:1009D0000A40044989581F220A40D0407047C04647
:1009E00008000020BC25000810B51E4C20688006B9
:1009F000400F06D0226838210A401B48082A07D138
:100A000010BD083C20688004410F1848C84010BD44
:100A100022680A40102A15D1616803220A40032A7D
:100A200000D0124861684906490F491CFFF7A2FB34
:100A300061684904490E48436168490F491CFFF742
:100A400099FB10BD20680840202802D10120C00376
:100A500010BD20680840182801D0002010BD7D205E
:100A6000000210BD0810024000127A000024F400B9
:100A7000F0B587B00125002800D105E20495059066
:100A80000078C007F44F2AD0B868F96803252A46D1
:100A90008A4338210140102048408218504250417A
:100AA000082914D0002812D10598426801200104B9
:100AB0008A4208D005231B049A4200D006E1820432
:100AC0003B6813433B603A680A433A6008E1386880
:100AD000800304D505984068002800D157E10598A7
:100AE0000078800716D405980078000745D4059A49
:100AF000107840074ED4D069002800D143E1B9688E
:100B000038220A40102A00D0B6E0012800D012E1B5
:100B1000049DB9E1B9683820084010214140FA68C5
:100B20000326324002235340CA1851425141012545
:100B3000AC0200283AD0002938D13868059AD1682B
:100B4000002900D1DAE00721C90288431169014375
:100B500039602802396801433960FFF77BFC05469C
:100B60003868204200D0DCE0FFF774FC401B02280C
:100B7000F6D93546284607B0F0BDB868382101409F
:100B800018293BD1386E8007B1D5059880690028B7
:100B9000ADD1FCE0B86838210140202945D1F86D7D
:100BA0008007A8D590680028A5D1F0E039682142D7
:100BB000059B03D0D968002900D165E17F21090296
:100BC0007A688A43596909021143796000280DD176
:100BD0000720C002396881431869084338603868C3
:100BE0008004400FB549C140B5480160B548006870
:100BF000FFF754FC002800D046E174E7386E0599F1
:100C00008969002900D1DBE0012108433866FFF73C
:100C100021FC0646386E800700D568E7FFF71AFC0E
:100C2000801B03250228F5D92EE10120039001073E
:100C3000F86B0840029006D1F86B0843F863F86B34
:100C400008400690069801919F480068C0052CD482
:100C5000039804029C49086820430860FFF7FAFBE8
:100C600006469948006820421FD1FFF7F3FB801B1E
:100C700003250228F5D907E10122130639689943B3
:100C80003960022800D086E0039304925406FFF7EF
:100C9000E1FB06463868204200D1B0E0FFF7DAFBFE
:100CA000801B03250228F5D9EEE005988068874C63
:100CB000012806D0052800D0D0E0F86D04210143BA
:100CC000F965F86D03990843F865D1E03B688B43FB
:100CD0003B6081043B688B433B60002A00D180E08D
:100CE0004404FFF7B7FB06463868204200D0F6E61A
:100CF000FFF7B0FB801B6428F6D9C5E029028843C2
:100D00003860FFF7A7FB05463868204200D1EAE6C5
:100D1000FFF7A0FB401B0228F6D93546284607B04E
:100D2000F0BD7F2000027968814305984069000288
:100D300008437860D7E6F86803210140059B1A6AEA
:100D4000914224D1702101405A6A91421FD17F21E2
:100D5000090201409A6A1202914218D11F214904E6
:100D60000140DA6A914212D107214A0602401C462C
:100D70001B6B9A42049D00D086E049070840616BD6
:100D8000884200D080E00025284607B0F0BD049DD1
:100D9000284607B0F0BDF8680325A843F860F86856
:100DA0004B490140F9605606FFF754FB044638688A
:100DB0003042E8D0FFF74EFB001B0228F7D963E072
:100DC000012188433866FFF745FB0646386E8007E9
:100DD00000D48CE6FFF73EFB801B03250228F5D9E3
:100DE00052E04404FFF736FB06463868204200D143
:100DF00075E6FFF72FFB801B6428F6D944E0F868FE
:100E0000344901400598026A456A836AC66A0196B8
:100E1000066B0296406B0A432A4319021143019A5A
:100E20001143029A11430143F9603868039908435A
:100E3000386004980007F9680143F960FFF70AFB7E
:100E40000646386820429ED1FFF704FB801B03252D
:100E50000228F6D918E0C04600100240F96D039A46
:100E60009143F965F96D04229143F96500280ED08C
:100E7000FFF7F0FA0646F86D800715D4FFF7EAFA97
:100E8000801B0325A042F6D9284607B0F0BDFFF726
:100E9000E1FA0646F86D800706D5FFF7DBFA801BFE
:100EA0000325A042F6D9EFE702980028059A00D062
:100EB00021E6F86B01998843F8631CE60024F400EE
:100EC000080000200400002000700040881300008B
:100ED000FFFFFEEE8C80C111F0B500684368180C6E
:100EE000C8703F261E408E701C0A1F2525404D707D
:100EF0001F047F0F0F70002A01D00020F0BD0F22C9
:100F0000134037090A267743FB188B7014402B09CE
:100F100073431B194B700240C0B200097043801824
:100F2000C8700020F0BD0000F0B581B00068836893
:100F30004B600369164C1C408C6004687F20274678
:100F400007408F706302DB0FCB70250A2840487082
:100F5000230C3F261E400E70002A02D0002001B054
:100F6000F0BD0F22009214403F090A2257433C195A
:100F70008C70009C25400009504340194870234064
:100F800030095043C0180870002001B0F0BDC046C1
:100F9000FF7F000070B500284AD004460646283678
:100FA0007078002807D1002030701120C0026060E6
:100FB000204600F055F8022070702068CA21416276
:100FC00053214162C168490616D4C16880220A4390
:100FD000C260FFF73FFA05462068C16849060BD496
:100FE000FFF738FA401B7D21C9008842F4D903205D
:100FF00070702168CA6818E08169184A0A408261E5
:10100000A16862690A43E169114382690A43826106
:1010100021690161E168090402690A43026120460D
:1010200000F0CEFA2168002804D0FF224A6270BD89
:10103000012070BD072040078A6982438A61206AC7
:10104000626A0243A06910438A6902438A61FF20F1
:10105000486201207070002070BDC046BFFF8FFB4A
:1010600081B000680A49884201D001B07047012070
:10107000C103084A136A0B431362800211680143DB
:101080001160116801400091009801B07047C0469E
:10109000002800403C100240401E010E01D00120FB
:1010A00070470749074A5060074803680B4003210F
:1010B000890759180160002090600721116070476E
:1010C000FFFFFF0010E000E020ED00E070477047F8
:1010D0007047000070B5002828D0044605463C350E
:1010E0006878002804D100202870204600F05EF8BF
:1010F0000220687021680E6801208307994205D09C
:101100004F4A914202D04F4A914211D170229643E8
:10111000A2683243224EB1420EDC994215D0494BAF
:10112000994212D0204B99420FD036E0012070BD79
:1011300032461B4EB142F0DD414B994205D0194B6E
:10114000994202D0284B994227D103231B029A438C
:101150002369134380229343A2691A430A60E26819
:10116000CA6262688A62364A914205D00D4A91424B
:1011700002D01D4A914201D162690A634861287315
:10118000A870E87028716871A871E8712872687297
:10119000A872E8726870002070BD1346DAE7C04696
:1011A000FF2B0140004801400020004010B582B0F4
:1011B00000680D49884201D002B010BD01204004F2
:1011C0000A490A6802430A600968014001910198CE
:1011D0001524002120460A46FFF7AEF92046FFF706
:1011E0009FF902B010BDC0460044014040100240CB
:1011F00010B53D21415C01291BD101463D31022240
:101200000A700168C86801221043C86090078142D3
:1012100005D00B48814202D00A4881420BD1886830
:10122000094B03400020062B02D01404A34202D134
:1012300010BD012010BD086810430860002010BDDB
:10124000002C01400004004007000100704700002E
:10125000B0B50446006801698907554D17D5C168C6
:10126000890714D52946FE31016101212177806962
:10127000800703D02046FFF7E9FF05E0204600F095
:1012800099F8204600F097F800202077206801693F
:10129000490718D5C168490715D52946FC310161B0
:1012A0000221217780698005800F03D02046FFF757
:1012B000CDFF05E0204600F07DF8204600F07BF8E9
:1012C0000020207720680169090717D5C168090740
:1012D00014D52946F831016104212177C0698007BE
:1012E00003D02046FFF7B2FF05E0204600F062F889
:1012F000204600F060F80020207720680169C906C8
:1013000018D5C168C90615D52946F03101610821F3
:101310002177C0698005800F03D02046FFF796FF34
:1013200005E0204600F046F8204600F044F8002092
:10133000207720680169C90709D0C168C90706D0AC
:101340002946FF310161204600F036F82068016926
:10135000090609D5C168090606D52946803101610B
:101360002046FFF7B4FE20680169C90507D5C168AA
:10137000090604D505612046FFF7A8FE206801692B
:10138000490609D5C168490606D52946C03101611B
:10139000204600F029F820680169890607D5C16850
:1013A000890604D5E03505612046FFF791FEB0BD02
:1013B000FFFEFFFF70477047B0B509484021FFF7B7
:1013C00038F8052004070120450220462946FFF78A
:1013D00030F820462946FFF727F80249C860B0BD1B
:1013E00000080050280000207047B0B5002830D019
:1013F0000446054680356868002804D1002028701E
:10140000204600F029F82420686020680168012542
:10141000A9430160204600F08FFA012817D0A06A86
:10142000002802D0204600F087F90920C002216878
:101430004A6882434A6088682A2290438860086824
:10144000012202430A60204600F0E0F905462846E2
:10145000B0BD0120B0BD000080B586B00068124963
:10146000884201D006B080BD012041040F4A936834
:101470000B43936093680B400193019911680143FA
:1014800011601168014000910590002104910390C2
:10149000022002900C20019005200007009901A96C
:1014A000FEF7E8FE06B080BD004400403410024064
:1014B000F0B587B00E46044684202158022020292A
:1014C00011D10125002E19D00492002A16D0012135
:1014D0000D03A268AA420AD1F20708D02269002AA5
:1014E00005D10D460AE00546284607B0F0BD039534
:1014F000274680373A78012A054602D1284607B0A8
:10150000F0BD05933A46274654370025D560117043
:10151000212002925060FEF79DFF0690049878808B
:101520003880A068039988420AD12069002804966F
:1015300001D0002104910028059903D1064601E05D
:1015400004950599029805700CE0049A10881949D1
:10155000084021688862921C04922E46059978887A
:10156000401E78807888002810D0009180210025C6
:1015700020462A46069B00F0DDFA002810D1002EF6
:10158000E3D0307821688862761CE7E7009140213B
:10159000002520462A46069B00F0CCFA002803D0FE
:1015A0000325284607B0F0BD202002994860284650
:1015B00007B0F0BDFF010000FEE7FEE7704770478F
:1015C000F0B581B00446234F38460C3801688022BC
:1015D000914301607D20C6003868800615D42068DC
:1015E000C168A0229143C160FEF734FF0546206820
:1015F000C068800623D4FEF72DFF401BB042F6D909
:1016000029210320605401B0F0BD386820210091E9
:10161000884338602068C168A0229143C160FEF70A
:1016200019FF05462068C06880060BD4FEF712FF3C
:10163000401BB042F6D929210320605403E000206A
:1016400001B0F0BD00203968009A1143396001B043
:10165000F0BDC04618280040704780B5FEF7FEFE7A
:1016600080BD0000F0B59DB000251595149513952B
:101670001295119510950E950D950C950B9501A849
:101680002821FEF76CFD01267002FEF775FFFEF7BC
:10169000B3FF2048016818229143016070071C9035
:1016A00070061B90700400901A90082019901895ED
:1016B0000224179416944020149013953702129721
:1016C000119606200F900FA8FFF7D2F9002803D03B
:1016D000EFF3108072B6FEE73E46009F0E950D9523
:1016E00007200B900C940BA82146FFF76FF80028F9
:1016F00003D0EFF3108072B6FEE70A96019701A8B7
:10170000FEF782FF002803D0EFF3108072B6FEE7E9
:101710001DB0F0BD5C1002400120C0060149086008
:101720007047C04608ED00E080B50248FFF790FD25
:1017300080BDC04680000020B0B5816ACA070CD1C8
:101740008A0714D44A071CD40A0724D4CA062CD406
:101750008A0634D44A063CD44CE001225204036881
:101760005C689443C26A22435A608A07EAD5012220
:10177000120403685C689443026B22435A604A0770
:10178000E2D50122920403685C689443426B2243D1
:101790005A600A07DAD50122D20303685C689443D1
:1017A000826B22435A60CA06D2D501221203036813
:1017B0009C689443C26B22439A608A06CAD5012270
:1017C000520303689C689443026C22439A604A0661
:1017D00010D501221305026854689C43456C2C43C4
:1017E00054609D4206D103235B0554689C43836C7F
:1017F00023435360090607D50121C90402685368D1
:101800008B43C06C18435060B0BD0000F0B585B08C
:1018100004468C200026265020468C300290274615
:101820008037FEF717FE0546206801680907049611
:10183000039727D5C169890224D401204705019067
:10184000C60202E0C16939421CD1FEF703FE421B09
:1018500020680168374B9A4249D84907F2D5C169D7
:101860003142EFD006620D21490102688A430260CD
:101870008168019A914381602020039A50609060B2
:1018800002994FE00168490727D5C069400224D476
:10189000012087050190C60202E0C06938421CD1D0
:1018A000FEF7D8FD421B20680168224B9A422CD8D3
:1018B0004907F2D5C1693142EFD006620D214901D5
:1018C00002688A4302608168019A91438160202006
:1018D000039A50609060029924E02020039A50609F
:1018E00090600499E1660846117005B0F0BD0D22C4
:1018F0005201914301608168019A914381602020E7
:10190000039A5060114608310CE00D2252019143B8
:1019100001608168019A914381602020039A5060A0
:10192000114608312020086003200499117005B089
:10193000F0BDC046FFFFFF01F0B581B0044602686C
:1019400011686F480840A16823690B436169194316
:10195000E3691943656E0D4305431560032738039A
:1019600051688143E06808435060A169654DAA420F
:1019700002D0206A084300E008469168624E0E409B
:1019800006439660D06A0F218843616A0843D0629B
:101990005E4882420BD0AA420BD05D48824210D1F1
:1019A0005C4800688007000F5B4E36580AE000264E
:1019B00008E058480068000A0C2606405648865938
:1019C00000E010262046683000905448AA4216D005
:1019D0000125EA03934226D1082E00D987E0C046AC
:1019E0007E4436797600B7440482598252828282DC
:1019F0005800FEF7E7FF00284DD0616A4EE0012550
:101A0000082E00D973E0C0467E4436797600B7448C
:101A1000046E246E1C6E6E6E2200FEF7D3FF00284B
:101A200017D0616A19E0082E61D8C0467E44367925
:101A30007600B744045C4C5C455C5C5C4B00FEF794
:101A4000C1FF002840D0616A41E0FEF7CDFF0028C9
:101A5000E7D100254BE00120C0034900304A515A2C
:101A6000FEF788FB62685743B84240D311038842AF
:101A70003DD8010E56080002002380195941FEF797
:101A800037FB29494118294A914230D22CE0FEF710
:101A9000ABFF0028B1D1002529E010464900204ABB
:101AA000515AFEF767FB400061684A081018FEF7BC
:101AB00061FB1C4901401AD00007400F084313E0A6
:101AC000FEF792FF0028BED1002510E01046490025
:101AD000134A515AFEF74EFB61684A081018FEF788
:101AE00049FB80B2102802D32168C8600025104845
:101AF00000990860002020676067284601B0F0BDAB
:101B0000F369FFCF00800040FFF4FF110044004064
:101B10000038014054100240F42500080024F4006D
:101B2000DC250008F0FF000000FDFFFF00FD0F00B6
:101B300001000100F0B585B015460E460746046861
:101B4000E1693140891B4A424A410020AA4223D11F
:101B500004933A4680320A9B002B1FD0591C36D181
:101B6000E1693140891B4A424A41AA4214D1E169E4
:101B70003140891B4A424A41AA420DD1E1693140B4
:101B8000891B4A424A41AA4206D1E1693140891B78
:101B90004A424A41AA42E3D005B0F0BD0292FEF7A4
:101BA00059FC0D20400139680A6882430A60886840
:101BB0000122904388602020029A5060104608302D
:101BC0000021117020210160032005B0F0BD0292B8
:101BD000019001200090C002039006E0C0693040EF
:101BE000801B41424141A94221D11C46FEF732FCF3
:101BF0000499401AA042D4D823463868016849079E
:101C0000ECD5C169039A1142E8D0039901620D2114
:101C1000490102688A4302608168009A91438160A9
:101C20002020029A5060906010460C30C8E701985E
:101C300005B0F0BD90B0FEF71BFCFFF713FD0027C9
:101C40000F97AC48016802221143016001681140FE
:101C50000A910A99016804220892114301600168FF
:101C600011400A910A99016820221143016001681C
:101C700011400A910A990168012631430160006808
:101C800030400A900A989C489C4C21463A46FEF700
:101C9000D8FB052005079A4928463A46FEF7D1FBAE
:101CA0009848402106913A46FEF7CBFB0E970D96D9
:101CB0000C960B940BAC90482146FEF7DBFA0D977F
:101CC00091480C9008980B9090482146FEF7D2FA64
:101CD0000E970D960C968A480B9028462146FEF7E3
:101CE000C9FA0E970D9709960C9606980B908548A1
:101CF0002146FEF7BFFA0624204639463A46FEF74B
:101D00001BFC2046FEF70CFC81480C21E12252020C
:101D1000804B036042608760C760076141618761F3
:101D2000C761076247628762FFF75FFB002803D045
:101D3000EFF3108072B6FEE7079577487749784A47
:101D4000784B036042608760C160076147618761CB
:101D5000FFF7C0F9002803D0EFF3108072B6FEE75A
:101D6000714CFF207F21714AE262099A92076763F2
:101D7000A163E06327646764A764E264276525467E
:101D80002C352846FFF706F9002803D0EFF3108022
:101D900072B6FEE706956048FFF72AFA2146183129
:101DA0000026069D284632460896FFF7BDF8208B90
:101DB0002080A07EA0702146103128463246FFF7D1
:101DC0008BF8227CA37C607CE17CFC4C247EFB4D68
:101DD0006D7EFA4EB67E7D273F01C91900AF73C7ED
:101DE000F74D2846F74900F0F3F9F449486182B20B
:101DF0006424F14829462346FFF75AFBEF4801784F
:101E0000CD2002464A43D20A0A235A438A1AD2B242
:101E1000EA4DEA80E94A527805465543ED0A5D43AA
:101E2000531BDBB2E54D6B8129252E464E43360B05
:101E30006643891BC9B24143C90AE04FB980554383
:101E4000290B6143511AC9B24143C80ADB490881D1
:101E5000DD48C45C224609980240DC4F3988D54DE4
:101E6000089E2846FEF7EDFAA007C20FB98828465B
:101E7000FEF7E7FA6007C20F39892846FEF7E1FA54
:101E80002007C20FB9892846FEF7DBFAE006C20F29
:101E9000398A2846FEF7D5FAA006C20FB98A284625
:101EA000FEF7CFFAA209398B2846FEF7CAFA20219D
:101EB000079D28463246FEF7C4FA102128463246CE
:101EC000FEF7BFFA0224284621463246FEF7B9FA49
:101ED000284609990A46FEF7B4FA2046B74CFEF7A1
:101EE000A1F92089002823D00928344626D8B649EC
:101EF0000C5C23E034100240000400503703000063
:101F000033020000000800500000111000140050BF
:101F1000CC00002000440040800000200F2700007B
:101F2000FF18000000440140280000200028004065
:101F3000A088E188014300D1EEE03F242246099FBA
:101F40003A40A24D29889B4E3046FEF77AFAA9887E
:101F5000A007C20F3046FEF774FA29896007C20F46
:101F60003046FEF76EFAA9892007C20F3046FEF709
:101F700068FA298AE006C20F3046FEF762FAA98A9B
:101F8000A006C20F3046FEF75CFA298BA209304644
:101F9000FEF757FA2021079D2846089E3246FEF795
:101FA00050FA102128463246FEF74BFA0224284602
:101FB00021463A46FEF745FA284639463246FEF7AC
:101FC00040FA2046FEF72EF97C4CE088002803D129
:101FD000A188002900D19FE00999E1600024092827
:101FE000089401D878490C5C2246099F3A40774D05
:101FF0002988704E3046FEF724FAA988A007C20F40
:102000003046FEF71EFA29896007C20F3046FEF7F8
:1020100018FAA9892007C20F3046FEF712FA298A5A
:10202000E006C20F3046FEF70CFAA98AA006C20FDE
:102030003046FEF706FA298BA2093046FEF701FA70
:102040002021079D2846089E3246FEF7FAF9102106
:1020500028463A46FEF7F5F902242846214632463C
:10206000FEF7EFF9284639463246FEF7EAF92046F0
:10207000FEF7D8F8514CA08800284DD0092802D886
:1020800051490C5C00E000242246099E32404F4D2D
:102090002988484F3846FEF7D4F9A988A007C20F0F
:1020A0003846FEF7CEF929896007C20F3846FEF799
:1020B000C8F9A9892007C20F3846FEF7C2F9298A54
:1020C000E006C20F3846FEF7BCF9A98AA006C20F87
:1020D0003846FEF7B6F9298BA2093846FEF7B1F962
:1020E0002021079D28463246FEF7ABF91021002437
:1020F00028462246FEF7A5F90227079839462246C8
:10210000FEF79FF9079831462246FEF79AF93846BE
:10211000FEF788F8294CA688E068012800D03DE643
:10212000E088002800D039E6002E00D036E6274DA2
:10213000298800271F4C20463A46FEF782F9A988D5
:1021400020463A46FEF77DF9298920463A46FEF7B1
:1021500078F9A98920463A46FEF773F9298A20467C
:102160003A46FEF76EF9A98A20463A46FEF769F923
:10217000298B20463A46FEF764F92021079E304617
:102180003A46FEF75EF91021012430462246FEF75A
:1021900058F90225304629463A46FEF752F93046AC
:1021A0002146064C3A46FEF74CF92846FEF73AF827
:1021B000F4E5C04600040050CC00002028000020B8
:1021C0005C01002004260008722500080C00002095
:1021D0000FB410B504A9074B02AA039800F01CF82D
:1021E000044602A9002000F0BFF9204610BC08BC3C
:1021F00004B018476925000802E008C8121F08C18A
:10220000002AFAD170477047002001E001C1121F77
:10221000002AFBD170470000FFB58FB005460026AD
:1022200006E025280AD0129A119990476D1C761C59
:1022300028780028F5D1304613B0F0BD0024029470
:102240000121B54A009400E004436D1C2B78084638
:10225000203B98401042F7D128782A280ED002223D
:10226000287801463039092916D802990A2359439A
:102270003039401814436D1C0290F1E7109802C8E1
:1022800002911090002904DA0120400304434842DF
:102290000290022004436D1C28782E2817D10420B8
:1022A000044368786D1C2A280CD110986D1C02C854
:1022B000009110900BE000990A22514330394018E8
:1022C0006D1C00902878014630390929F3D9287807
:1022D0006C2810D006DC4C281AD068280ED06A284A
:1022E00017D104E0742813D07A2812D110E001200D
:1022F000400504430CE00121090501E00321090523
:102300000C436978814203D10120000524186D1C1B
:102310006D1C2878692874D006DC00288BD06328CF
:1023200027D0642806D16CE06E2808D073282CD002
:10233000752878D0129A11999047761C5FE0600258
:10234000400F022809D003280DD0042810980168F6
:102350000DD00E60001D109051E01098F21701682A
:102360000E604A60F6E7109801680E80F2E70E7082
:10237000F0E710986A4601781173001D1090002054
:10238000507303A80190012005E0109802C8019144
:1023900010900020C04361070CD5002700E07F1C8F
:1023A00000998F420FDA8742F9DB0199C95D002954
:1023B000F5D108E0002700E07F1C8742FCDB019993
:1023C000C95D0029F8D102982146C01B0290129BDA
:1023D000119A00F0B3F88019C61907E00198019925
:1023E0000078491C0191129A119990477F1EF5D2ED
:1023F0002146129B119A029800F090F886196D1CE4
:1024000016E70A200190109901C910916102490F45
:10241000032900D100B2042900D140B2002803DA18
:1024200040422D2103E00DE0210504D52B216A4611
:102430001173012103E0E10711D02021F7E70CAF70
:102440000C9114E00A200190109901C910916102C9
:10245000490F032900D180B2042900D1C0B2002164
:10246000EDE70199FDF786FE30317F1E39700028B7
:10247000F7D104A8C01B20300190600704D50120CB
:1024800000048443009801E00120009001998842F3
:1024900001DD401A00E00020411800900C98091856
:1024A0000298401A0290E00306D42146129B119A2A
:1024B000029800F043F8861900200D9008E003A967
:1024C000085C129A119990470D98401C761C0D904B
:1024D0000C998842F3DBE0030CD52146129B119A3C
:1024E000029800F02BF8861904E0129A3020119916
:1024F0009047761C0099481E00900029F5DC05E005
:102500003878129A7F1C11999047761C0199481EC1
:1025100001900029F4DC6BE709280100F8B50446B6
:1025200000251E461746880404D405E039462020BD
:10253000B0476D1C641EF9D52846F8BDFFB50446AA
:10254000002581B01E46C80301D5302700E02027B2
:10255000880404D505E038460399B0476D1C641E15
:10256000F9D5284605B0F0BD0A68531C0B60107001
:1025700070473F065B4F666D7D077F6F0000000070
:10258000000000000000000000000000000000004B
:10259000000000000000000000000000010000003A
:1025A000020000000300000004000000060000001C
:1025B0000700000008000000090000000000000003
:1025C000000000000000000000000000010000000A
:1025D00002000000030000000400000001000200EF
:1025E0000400060008000A000C0010002000400053
:1025F0008000000100000000040000000200000054
:102600000800000025642C20253032642D2530324E
:10261000642D253264207C20253032643B25303205
:10262000643B253032640D0A00000000502600088B
:102630000000002028000000F8210008782600088B
:10264000280000207005000008220008000000009B
:1026500001000000040000000024F400100000004D
:102660002000000000020000020000000001000045
:0826700004000000010000005D
:04000005080000C12E
:00000001FF
